:100000004FC00AC268C067C066C065C064C063C034
:1000100062C061C060C05FC05EC05DC05CC00902FC
:100020002200010100A032090400000103000000C9
:1000300009210101000122160007058103080014AF
:100040001201100100000008C016DF0500010102C6
:1000500000011403550053004200520065006C007B
:1000600061007900310020037700770077002E00CF
:1000700064006300740074006500630068002E0073
:1000800063006F006D00040309040600FF0901A16D
:1000900001150026FF00750895080900B20201C08D
:1000A00011241FBECFE5D1E0DEBFCDBF10E0A0E63A
:1000B000B0E0E2E0F9E002C005900D92A236B1078F
:1000C000D9F720E0A2E6B0E001C01D92A13AB20744
:1000D000E1F7D5D314C494CFCF93C62F20917000ED
:1000E00024FF07C03091710028E823272093710076
:1000F00003C02AE5209370002C2FFC01A2E7B0E09A
:1001000081918D9321501216DCF36C2F82E790E0E1
:100110006CD1CC5FC0937000CF910895CF93DF93E3
:1001200060918100635067FDC3C080917E00CCE088
:10013000D0E0C81BD109CB57DF4F80917D008D32B5
:1001400009F0A5C0683009F0B1C083EC8093650068
:100150008AE580936100109263008881807631F097
:10016000CE013FD38F3F09F481C087C09A8110929E
:100170006E008981811106C010926F002EE630E07A
:1001800082E06FC0853019F49093820067C086309A
:1001900009F04EC08B81813041F480E490E090936F
:1001A000800080937F0082E13FC0823041F48EE185
:1001B00090E09093800080937F0082E235C083308E
:1001C000F1F4911108C086E890E09093800080934C
:1001D0007F0084E029C0913041F486E690E090935E
:1001E000800080937F0080E21FC09230E1F482E5BE
:1001F00090E09093800080937F0084E115C081326D
:1002000041F480E390E09093800080937F0089E048
:100210000BC0823241F48AE890E090938000809392
:100220007F0086E101C080E090E49093630025C0E8
:10023000883069F0893019F4909384000FC08A30B7
:1002400049F08B3059F48BE48093710007C024E8A7
:1002500030E002C02EE630E081E003C02EE630E060
:1002600080E03093800020937F0007C0988197FD45
:100270008E8190E89093630007C09F81911104C024
:100280009E81981708F4892F809360000FC0809199
:10029000630087FF0BC0CE01D3D28F3F21F48EE1E4
:1002A0008093610003C08111109260001092810060
:1002B0008091610084FF55C0809160008F3F09F4F8
:1002C00050C0C82F893008F0C8E08C1B80936000B4
:1002D0009091650088E8892780936500CC2309F414
:1002E00059C02091630027FF08C06C2F86E690E07C
:1002F00087D2C82F893078F523C080917F009091F4
:10030000800026FF0AC0A6E6B0E0FC012C2F349145
:100310003D9331962150D9F708C0DC01E6E6F0E0C4
:100320002C2F3D9131932150E1F72FEF2C0F30E02E
:100330002F5F3F4F820F931F9093800080937F0029
:100340006C2F86E690E051D0CC5FCC3041F08FEF3F
:100350008093600004C08FEF80936000CEE1C09373
:10036000610084E196B3967031F48150D9F7109210
:10037000820010927C00C1E08111C0E09091620087
:10038000C91771F0882319F0F894A4D17894C09318
:10039000620006C060E086E690E027D0C4E0D7CFD8
:1003A000DF91CF91089585B7826085BF8BB7806458
:1003B0008BBFE0E7F0E08BE481838AE580830895DA
:1003C000A82FB92F80E090E041E050EA609530E03E
:1003D00009C02D9182279795879510F0842795273E
:1003E000305EC8F36F5FA8F30895EADF8D939D93A5
:1003F0000895A6E088279927AA9569F00197E1F367
:10040000B199FCCFB19BFECF81E09927A6B30196AD
:1004100011F0A670D9F70895CF93CFB7CF93C395B6
:10042000B19BE9F7B19B0BC0B19B09C0B19B07C061
:10043000B19B05C0B19B03C0B19B01C0D5C00F9259
:10044000DF93C0917E00DD27CB57DF4F012EB19B9C
:1004500003C0DF910F90E6CF2F930F931F934F931D
:100460002FEF4F6F06B301FB20F95F933F9350E0EE
:100470003BE065C016B30126502951FDC89556B31F
:10048000012701FB25F92F7306B3B1F05027102780
:1004900011FB26F906B22230F0F000C016B3012796
:1004A00001FB27F90126502906B22430E8F54F77E1
:1004B000206816B30000F6CF50274F7D206206B2A9
:1004C000102F000000C006B300265029102711FB92
:1004D00026F906B2E2CF4F7B06B3206400C0DACF24
:1004E00001265029167006B269F14E7F2160012F56
:1004F00016B328C0002650294D7F06B22260102F67
:1005000029C0012650294B7F06B22460012F2DC03F
:1005100016B301265029477F2860000006B22EC07E
:100520004F7E06B3206130C0422706B349930026B0
:100530005029102706B24FEF11FB20F9297F16B37F
:1005400079F2167059F10126502906B2012701FBF4
:1005500021F9237F06B371F2002650293150D0F0E3
:1005600006B2102711FB22F9277E16B351F201269D
:100570005029012701FB06B223F92F7C49F2000024
:1005800006B3102711FB24F90026502906B22F7953
:1005900039F270CF10E41ABF002719C03B503195D3
:1005A000C31BD04010E41ABF0881033C09F10B348F
:1005B000F9F020917C001981110F1213EDCF4A81BF
:1005C000441F093651F10D3211F0013E29F7009315
:1005D00083003F915F914F911F910F912F91DF9178
:1005E0000F90CAB7C6FD1BCFCF91CFBFCF91189543
:1005F00020918300222369F310918100112379F562
:1006000034307AF13093810020937D0010917E0088
:100610003BE0311B30937E0024C00091810001300B
:10062000F4F40AE54F7049F43091610034FD1AC0CA
:1006300000936100C5E6D0E019C03091700034FD30
:1006400011C000937000C1E7D0E010C0052710E092
:1006500000C021C0052710E0C89508BB14C03AE5CA
:1006600001C032ED032EC0E0D0E032E017B31660D7
:10067000C19A08B317BB56E020E84FEF20FF0527CB
:1006800008BB279517951C3F28F700004552B0F787
:1006900020FF0527279508BB17951C3FB8F6299121
:1006A0003A9561F7097F10918200110F08BBC25083
:1006B000D04011F010937C0010E41ABF026017B311
:1006C000197F402F497F54E05A95F1F708BB17BBBB
:1006D00048BB7FCFDF92EF92FF920F931F93CF9390
:1006E000DF9308E010E0C0E0D0E8DD2EDC0ED1BEE4
:1006F00080DE7C0184E3E81689E0F8060CF4CD2D59
:10070000D6950150110989F78FEF8C0F81BF0C2FFF
:1007100010E00F5F1F4F81B790E0081719078CF0AA
:1007200068DE8453994097FF03C0919581959109A4
:100730008E159F0514F4C1B77C0181B78F5F81BF0F
:10074000EACFC1BFDF91CF911F910F91FF90EF9042
:10075000DF9008958091640081111FC046E050E051
:1007600060E070E08BE990E0A5D080919B008F3F26
:1007700089F485E580939B008EE480939C0083E55B
:1007800080939D0085E480939E0084E580939F0084
:100790001092A00081E08093640008950F931F934E
:1007A000CF93DF938C01C62FD0E0AE0160E070E004
:1007B00090D0AE0160E470E0C8018BD0AE0160E87B
:1007C00070E0C80186D0F801ABE9B0E081918D936B
:1007D00080E0A13AB807D1F7DF91CF911F910F9137
:1007E0000895FC0190819076903241F49181977F39
:1007F00081E0913009F080E08195089580E00895CE
:100800000F931F93CF936623A1F0C62F8C01A2DF15
:10081000EBE9F0E0D80181918D9380E0E13AF807AF
:10082000D1F7F80117821682C39B05C081E0878348
:1008300002C080E001C08C2FCF911F910F910895CD
:10084000CF93FC01C62F90819E3F39F09C3F61F011
:100850009F3F29F48181813079F4C39A0DC09D3F77
:1008600029F48181813041F4C39806C09A3F21F474
:1008700066E0CF01019692DF8C2FCF9108959EE024
:1008800088E10FB6F894A89581BD0FBE91BD8BDDB0
:10089000B99A80E0815041F0A895ECE1F0E1319700
:1008A000F1F700C00000F6CFB998BB9A7894A895EC
:1008B00035DCFDCFDC01862FE82FE199FECF1FBA92
:1008C00005C0EEBBE09AE3950DB20D924150C8F71A
:1008D0000895DC01862F02C02D9104D04150E0F72D
:1008E0000895262FE199FECF1CBA1FBA8EBB2DBBEF
:1008F0000FB6F894E29AE19A0FBE01960895F89423
:02090000FFCF27
:02090200FF5A9A
:00000001FF
